:100000000C943A000C9457000C9457000C94570031
:100010000C9457000C9457000C9457000C94570004
:100020000C9457000C9457000C9457000C945700F4
:100030000C9457000C9457000C9457000C945700E4
:100040000C9457000C9457000C9457000C945700D4
:100050000C9457000C9457000C9457000C945700C4
:100060000C9457000C9457000C9457000C945700B4
:100070000C94570011241FBECFEFD4E0DEBFCDBFDC
:1000800013E0A0E0B1E0EAE7F2E102C005900D92D2
:10009000AA33B107D9F723E0AAE3B3E001C01D9268
:1000A000AC36B207E1F70E9483080C943B090C942C
:1000B00000008AE393E00895EAE3F3E0148282E02B
:1000C000808393E0918381E082831382958386838A
:1000D0001782108620E530E0328721871486138648
:1000E000168615861786808B0895CF93DF93EC01D3
:1000F00081E00E943106882341F089859A858F31FD
:10010000910518F00A979A87898783E00E94310643
:10011000882341F089859A85883C910518F40A96D0
:100120009A87898780E00E94CB06882321F08F85FB
:1001300091E089278F878889882399F084E00E943D
:100140003106882371F081E08C8318828D8187309D
:100150000CF086E087FD80E0898381E08A831B8242
:10016000188A8D859E8501969E878D87CC9728F16C
:1001700081E090E080FF1EC080E00E944F0688234F
:1001800049F08D81815086300CF085E018160CF016
:1001900081E08D8382E00E944F06882349F08D81A3
:1001A0008F5F86300CF085E018160CF081E08D83AF
:1001B0001E861D86DF91CF91089580E00E94310652
:1001C0008111D6CF82E00E943106D4CFCF93DF9346
:1001D000EC018C81882309F467C08B859C8501968E
:1001E0009C878B8769857A858617970708F45CC09A
:1001F0001C861B8689819B81890F87FF42C081E015
:100200008B83898398812A81920F94300CF44FC09C
:10021000E82F082E000CFF0B2D81022E000C330B53
:100220004E81042E000C550BD901A41BB50BEA1707
:10023000FB0734F0240F351F91E02E173F070CF415
:1002400090E090FF25C08FEF8A8381E00E944F06E7
:10025000882341F08B818F5F18160CF481E087FDB5
:100260008FEF8B8383E00E944F06882341F08B81C0
:10027000815018160CF481E087FD8FEF8B8393E09B
:1002800018C087300CF4BDCF8FEF8B8385E0B9CFDA
:1002900098859F5F988741E06734710508F040E0DA
:1002A0006B810E946C011C82DF91CF91089597FDB4
:1002B00090E09883F9CF109252031092510310925C
:1002C000500310924F0310924E0310924D03109260
:1002D0004C0310924B03089590E067FD04C091E039
:1002E000611101C092E0880F880F880F8873406405
:1002F000842B990F892B80934D0381E080934E03CB
:10030000109252031092510384EF91E090935003A6
:1003100080934F030895DF92EF92FF920F931F9304
:10032000CF93DF931F92CDB7DEB78C0180914B0343
:1003300090914C03009729F0019790934C03809380
:100340004B031982CE0101960E942F07019759F4A1
:100350008981982F907C9038E1F510924E0310928D
:10036000500310924F0380914E03811106C080917B
:100370004F0390915003892B19F180915103909173
:100380005203892B21F480914D030E94060780912E
:1003900051039091520301968837910508F05EC091
:1003A000909352038093510380914F039091500397
:1003B000009709F458C001979093500380934F031E
:1003C0000F90DF91CF911F910F91FF90EF90DF90F1
:1003D0000895903441F6982F969596959695977036
:1003E000E92E982F96959370DD24DA94992329F0BD
:1003F000D12C913011F4DD24D3948170F82E8091AA
:100400004B0390914C03892B49F480E80E94060726
:100410008EE190E090934C0380934B0381E0F801D0
:1004200084831082F7E0EF1202C086E0E82EF80124
:10043000E18281E08283D38281859285FF2049F029
:100440008932910518F00A9792878187F801108AFE
:100450008ACF8E3B9105D0F70A96F6CF10925203C1
:1004600010925103A1CF80914E038111A9CF109218
:10047000520310925103A4CF1F93CF93DF93EC014B
:100480000E945E0361E082E093E00E94C2021E814E
:1004900011958E818117BCF48C81882349F0888165
:1004A000853030F49981973018F461E00E94C202DF
:1004B0008F85882391F060E070E080E5DF91CF9137
:1004C0001F910C9465039D81910F973020F461E09A
:1004D00084E00E94C2021F5FDCCF8889882389F0F4
:1004E0008C8181110EC09F81888560E070E0891742
:1004F00010F487E5E3CF981710F48CE4DFCF84E4A1
:10050000DDCFDF91CF911F910895E1E6F0E080E823
:1005100080831082A89584B7877F84BFE0E6F0E0EF
:1005200080818861808310820895CF93DF93EC01EE
:100530000E9438089E0150E040E062E17AE780E0E6
:1005400090E00E94EB083093560320935503DF910F
:10055000CF91089580915303909154030E944708CE
:100560008091530390915403209155033091560389
:10057000820F931F90935403809353030895692F20
:100580000C94650541E0611101C040E0692F0C94B5
:100590004F050C94C2027F928F929F92AF92BF92AE
:1005A000CF92DF92EF92FF920F931F93CF93DF933F
:1005B000762E872EB42E7C01C62F660FDD0BC81B4E
:1005C000D10987FDD395072F770F110B0F1911094B
:1005D000F7FC1395AA24AA94D7FD02C0AA24A394D9
:1005E00099249A9417FD02C099249394D7FF03C0CD
:1005F000D195C195D10917FF03C011950195110936
:100600006E01D594C794C017D107F4F46801D5944E
:10061000C794F814D9F06B2DC7010E94C202CC1AFE
:10062000DD0AD7FE03C0C00ED11EEA0CF90CF1CFD3
:100630006B2DC7010E94C202C01AD10AD7FE03C0A7
:10064000CC0EDD1EF90CEA0CE710F2CF6B2DC701C2
:10065000DF91CF911F910F91FF90EF90DF90CF909E
:10066000BF90AF909F908F907F900C94C202FF92AA
:100670000F931F93CF93DF93D82FF92E162FC72FE9
:10068000042F792F0E94CB02402F6D2F7C2F8D2FAE
:100690009F2D0E94CB02402F612F7C2F812F9F2DF9
:1006A0000E94CB02402F612F7C2F8D2F9C2FDF913A
:1006B000CF911F910F91FF900C94CB020E948D055A
:1006C000E0E0F1E0118A14860895DF92EF92FF9244
:1006D0000F931F93CF93DF93D82E7B01162F0F2DEF
:1006E0008091020190910301C0E0019751F11E2D0C
:1006F0001C0FE0910801F09109018181C81708F4ED
:100700005CC0C0E0E0910801F09109018281C81746
:1007100008F455C01F5F27C02D2F4C2F6D2D0E9450
:100720001C05682F8E2D8D0F902F0E94C202DF5F57
:100730008091080190910901FC012281D21760F398
:10074000CF5F0F2D0C1BE0910801F0910901818111
:10075000C81798F0C0E0E0910801F091090182818A
:10076000C81768F00150812F902FDF91CF911F9112
:100770000F91FF90EF90DF900895D0E0D9CF60E027
:100780008E2D8C0F902F0E94C202CF5FE4CF2D2FB1
:100790004C2F6D2D0E941C05682F812F9F2D9D0FC2
:1007A0000E94C202DF5F8091080190910901FC0163
:1007B0002281D21760F3CF5F9ACFD0E0F4CF60E010
:1007C000812F9F2D9C0F0E94C202CF5F9BCF0F9362
:1007D0001F93CF938C01C0E0F80181918F01882392
:1007E00041F00E946503BC01CF5F853014F477FFB0
:1007F000F3CF8C2FCF911F910F9108950F931F93DB
:10080000CF93DF9310920C0140930D0110921001D1
:1008100000910801109109010115110509F448C062
:100820009B01EC01F8018181609106017091070143
:1008300090E00E94C608BC0180910A0190910B01D2
:100840000E94D708CB016AE070E00E94C60890932E
:100850000F0180930E01309305012093040140E2C3
:1008600050E0BE0181E191E00E942C0980910001DD
:10087000909101010197E1F4FE0101900020E9F758
:100880003197BF016C1B7D0BF80181818F5F0E9446
:10089000BD088150209102013091030195E0213083
:1008A000310509F497E0981718F48EEF8093100142
:1008B000DF91CF911F910F91089520910201309106
:1008C000030170E02130310509F476E04FEF60E07C
:1008D0000C94FE0390E09093070180930601089525
:1008E00090930101809300010895909303018093F8
:1008F0000201089590930901809308010895809161
:10090000570390915803019690935803809357038F
:1009100020910E0130910F018217930708F441C016
:100920001092580310925703E0910C01F0E0E05050
:10093000FF4F8189811109C080910D01823088F1BA
:10094000815080930D0110920C0180910C0190E078
:10095000FC01E050FF4F2189222319F12091100161
:10096000409100015091010141155105E1F04130E4
:10097000510551F1809110018F5F80931001082E75
:10098000000C990BE0910801F091090121812817D1
:1009900019063CF41092100180910C018F5F809336
:1009A0000C010C9479052111E5CF6091040170913F
:1009B00005018F5E9E4F0E94E70390910C019150BC
:1009C000890F80930C01D6CF6091040170910501CD
:1009D00040910201509103014130510531F4720FF1
:1009E0008F5E9E4F0E94E703C5CF621BF9CFCF9366
:1009F000DF93C0E0D1E09B878A870E94950584E160
:100A000090E09F838E83DF91CF910C945E030097DB
:100A100089F0FC012381621B67FD09C0062E000CD2
:100A2000770B948181E09617170609F00CF480E0AB
:100A30008170089580E00895FC01892B71F1818116
:100A4000481758F59281291740F59381A62FA91BC5
:100A5000A7FD23C00A2E000CBB0B94819A171B061E
:100A6000E1F0DCF0622F0E94BD08480F858190E024
:100A7000BD010E94C608242F269526952695E80FCD
:100A8000F91FE20FF11D868190E0477002C0959535
:100A900087954A95E2F78170089580E00895853042
:100AA00098F4673088F421E030E001C0220F6A95A5
:100AB000EAF7E82FF0E0E65AFC4F822F809590810C
:100AC00089234111822B80830895853080F467301B
:100AD00070F4E82FF0E0E65AFC4F81E090E001C0AE
:100AE000880F6A95EAF79081982381E009F480E005
:100AF000089560915903E62FF0E0E65AFC4F80819B
:100B00000E94C705809159038F5F853018F4809348
:100B100059030895109259030895EAE5F3E010820D
:100B2000118212821382148208950E94A5050C94EA
:100B30008D059C01FC01FF2784A1832B84A395A133
:100B4000892F832B85A381E00895CF93DF93CDE197
:100B5000D3E0899199910E94990583E0CB32D8071F
:100B6000C1F783E090E40E94990580E090E80E943C
:100B7000990583E090E10E94990583E090E80E9446
:100B8000990583E090E2DF91CF910C949905E09173
:100B90005F03F0E0EE0FFF1FED5EFC4F208131811F
:100BA000F901FF2795A1932B95A3ADE1B3E02D911A
:100BB0003D91F901FF2780FF1CC025A1932F90953F
:100BC000922395A3869593E0AB32B90781F7E62F80
:100BD000F0E0EE0FFF1FED5EFC4F20813181F90147
:100BE000FF2795A1832F8095892385A360935F03B9
:100BF000089595A1932BE5CF6230710559F128F442
:100C000061307105E1F080E008956330710559F0BD
:100C100064307105C1F7FC01FF2784A1892B84A3EF
:100C200085A1892B09C0FC01FF2784A1892B84A3FE
:100C300025A1892F8095822385A381E00895FC0159
:100C4000FF2724A1892F8095922F982394A395A103
:100C50008923F2CFFC01FF2724A1892F80958223CD
:100C6000DECFE82FF0E0EE0FFF1FE05AFC4F80814F
:100C7000882329F0818191E089278170089580E09F
:100C8000FCCFE82FF0E0EE0FFF1FE05AFC4F808111
:100C9000811103C081818170089580E0FCCFE82F2D
:100CA000F0E0EE0FFF1FE05AFC4F80810895E82F1F
:100CB000F0E0EE0FFF1FE05AFC4F908181E08927A2
:100CC00008957F928F929F92AF92BF92CF92DF92C0
:100CD000EF92FF920F931F93CF93DF93C0E6D3E081
:100CE0005BE2C52E53E0D52E66E0762E888189839F
:100CF000F601019111916F015801BB24F50124A166
:100D0000E12EFF2485A190E08E219F2130E02E214D
:100D10003F21232BB1F133E0832E912C892B19F045
:100D200094E0892E912C64E070E0C8010E94FC05DB
:100D300062E070E0C8010E94FC05872D8A95F1F7FA
:100D4000F50183A190E0E822F92281E0EF2809F083
:100D500080E08883B401C8010E94FC052296F3E07C
:100D6000CA36DF0719F6DF91CF911F910F91FF90DF
:100D7000EF90DF90CF90BF90AF909F908F907F903B
:100D8000089588248394912C892B69F282E0882E1F
:100D9000912CC9CF089581110CC080916A038823DA
:100DA00031F080916B0391E089278170089580E094
:100DB000FCCF80E0089581110AC080916A038111FF
:100DC00004C080916B038170089580E0FCCF80E0C7
:100DD0000895811103C080916A03089580E0089509
:100DE000811105C080916A0391E08927089580E010
:100DF0000895EAE6F3E08081818389B1881F88271E
:100E0000881F8083089557985F9808951F93CF9304
:100E1000DF93182F64E570E081E00E94960765E19A
:100E200070E080E00E949607C8E0D0E065E170E0E5
:100E300010FF02C06AE270E081E00E94960765E15F
:100E400070E080E00E9496071695219779F765E19A
:100E500070E080E0DF91CF911F910C949607BF92D4
:100E6000CF92DF92EF92FF920F931F93CF93DF9376
:100E70006C010E94B5070FE011E0DAE1811113C0A7
:100E800090E080E0DF91CF911F910F91FF90EF9064
:100E9000DF90CF90BF9008950150110909F43EC032
:100EA0008D2F8A95F1F70E94B507C82F8111F4CFD5
:100EB00088E0E82EF12CD0E09AE1B92EC6950BE53A
:100EC00010E00E94B507882351F010E000E00E9476
:100ED000B50781110BC00B34110594F010C00150FF
:100EE0001109F9F08B2D8A95F1F7EBCF8B2D8A95AF
:100EF000F1F70F5F1F4F0639110549F7D1E0C068C0
:100F000081E0E81AF108D1F6F601C08381E090E0B3
:100F1000DD2309F4B7CF8EEF9FEFB4CF8FEF9FEFB4
:100F2000B1CF8DEF9FEFAECF0C94BC0790E0811155
:100F300013C080E037E48617970791F40895589A14
:100F4000232F2A95F1F75898242F2A95F1F7019627
:100F500086179707A1F7089580E034E242E2F8CFC0
:100F6000232F2A95F1F70196E6CF89B182FB8827D6
:100F700080F991E089270895509A5898539A5B9880
:100F800052985A980895CF93DF931F92CDB7DEB74A
:100F90009E012F5F3F4F45E065E373E00E945B08D1
:100FA00091E0980F909331019981915097BD18BCB1
:100FB00095B5977039F025B5909131019770287FDC
:100FC000922B95BD298130E0E82FF0E0EB5CFC4FDF
:100FD0008081A90102C0440F551F8A95E2F7CA011A
:100FE0000F90DF91CF91089585B3897F85BB95B52B
:100FF000809131018770987F892B85BD089585B5D3
:10100000887F85BD089585B382FB882780F9089580
:10101000009719F0019751F0089584B58F73629588
:10102000660F660F607C682B64BD089584B5629579
:1010300060738F7CF8CF009721F0019739F080E042
:10104000089584B58C7F84BD81E0089584B58E7F3A
:1010500084BD84B58260F7CF14BC15BC16BC18BC27
:1010600084B58E7F84BD84B5826084BD81E008959F
:101070001092800084E0809381001092850010928D
:101080008400089580918400909185000895AC01BA
:1010900080918400909185009C01241B350B283E93
:1010A0003340B0F708952091840030918500820F7D
:1010B000931F0C944708CF93DF93DC01FB0160E0A2
:1010C00080E0C1E0D0E0841305C0F9016083DF91C6
:1010D000CF9108959191BE01092E02C0660F771F2E
:1010E0000A94E2F76F5F7F4F769567956A0F7B1FD3
:1010F00002C0769567959A95E2F76F3F710529F3DF
:1011000020F38F5FE0CF0E94850288EE93E00E947B
:1011100095020E94CA060E94030788EE93E00E948F
:10112000F70482E391E00E947A048FE00E946A044F
:1011300090E080E00E9470040E9494070E945B018E
:101140000E945C000E945900EC010E94AA020E94C9
:101150007F040E9461060E94F906CE010E948B0165
:101160008F85811106C0CE010E947500CE010E94BC
:10117000E600CE010E943C02E8CF002480FD060E6E
:10118000660F11F08695D1F7802D0895002455271C
:1011900004C0080E591F880F991F009729F07695F3
:1011A0006795B8F37105B9F7802D952F0895AA1B9F
:1011B000BB1B51E107C0AA1FBB1FA617B70710F042
:1011C000A61BB70B881F991F5A95A9F78095909574
:1011D000BC01CD010895052E97FB1EF400940E94DA
:1011E000020957FD07D00E940A0907FC03D04EF4FC
:1011F0000C94020950954095309521953F4F4F4FE3
:101200005F4F089590958095709561957F4F8F4FB2
:101210009F4F0895A1E21A2EAA1BBB1BFD010DC012
:10122000AA1FBB1FEE1FFF1FA217B307E407F50796
:1012300020F0A21BB30BE40BF50B661F771F881F72
:10124000991F1A9469F760957095809590959B0108
:10125000AC01BD01CF010895FB01DC0141505040BC
:1012600048F001900D920020C9F701C01D92415035
:0A1270005040E0F70895F894FFCF16
:10127A000000000000001400000000000000000050
:10128A000000000000000000000000000000000054
:10129A000000000000000000000000000000000044
:1012AA000001010507205F050000000000C6186361
:1012BA0080014A290000004A7DF59502C417471F9C
:1012CA000163222232062615519305860800000082
:1012DA0088082108028220848800805457090080E7
:1012EA00904F0800000060880000800F0000000096
:1012FA00008C0100222202002EE63AA303C4104207
:10130A0088032E4244C4072E4207A30388A9F41176
:10131A00023F8407A3032E8617A3033F4244080112
:10132A002E4617A3032E460FA303C018600C00C055
:10133A00186088008888200802007CF0010082205A
:10134A008888002E424400012E425BAB0344C51F2D
:10135A0063042FC617E3032E8610A2032FC618E3D1
:10136A00033F8417C2073F841742002E861EA30735
:10137A0031C61F63048E10428803104218A303313A
:10138A0095515204218410C20771D71A630471D689
:10139A001C63042EC618A3032FC61742002EC65874
:1013AA0093052FC61763042E0607A3039F1042084E
:1013BA000131C618A30331C618150131C65AAB024A
:1013CA00312AA26204312A4208011F2222C20727B7
:1013DA008410C20120088220000E21849003444513
:1013EA00000000000000C00782200000000038E86A
:1013FA00A30721B419E30300B810A20310DA1CA34F
:10140A000700B8F883034C8A238400C0C7E8A10305
:10141A0021B4196304041842880308308492012114
:10142A00A4324A02861042880300AC5A630400B40C
:10143A0019630400B818A30300BCF8420000D8ECF2
:10144A00210400B419420000B8E0E003421C212440
:10145A000300C418B30500C418150100C45AAB022E
:10146A00004445540400C4E8A103007C44C407882E
:10147A001041080284104208018210448800008842
:10148A008A0000034000800310038003200040000C
:10149A00200010000800040002000103800340033A
:0A14AA002000800310000306080A6A
:00000001FF
